:100B940075A15575A1AA53B9BF43B98075A15575FF
:0E0BA400A1AAE5B954F84404F5B9E4F5A1227C
:0E0BEF00EF4E600905A1EF1F70F61E80F32285
:100BB200AD07AC06ED4C600E7FE87E03120BEFED45
:070BC2001D70F11C80EE2202
:040C1F0043C6102296
:10098C00C29FD29EC29DC2CDC2CC438780E4751952
:10099C000D751803F517F5167B0AFAF9F8AF19AEB1
:1009AC0018AD17AC16120508AF038F1AAF19AE1895
:1009BC00AD17AC16E47B0AFAF9F81205088F198EFC
:1009CC00188D178C16C3E51A940574809480401109
:1009DC00EF2401F519E43EF518E43DF517E43CF578
:1009EC0016E589540F4420F58943C9A0E519F40490
:0809FC00F58DD28ED299D29C38
:010A040022CF
:080003003098FDC298AF99226C
:080C07008F993099FDC299227A
:0A003900C2C7D2C5D2C475C2B222FC
:080C0F0030C0FDC2C0AFC122DC
:080C17008FC130C1FDD2C122E2
:100BC90075A15575A1AAEF600543B101800353B121
:070BD900FEE4F5A1F5FF2287
:030C23008FFF221E
:0A0BFD0075A15575A1AA43B110229D
:0E0BE000ABE243E2B07F017E00120BB28BE26B
:010BEE0022E4
:10060F0031323305010906A101050719E029E71564
:10061F0000250175019508810295017508810195E5
:10062F0003750105081901290391029505750191BB
:10063F00019506750826FF0005071900299181000D
:10064F00C0050C0901A101150025010AEA000AE9FC
:10065F00000AE2000A8A010A83010A23020ACD0076
:10066F000AB6000AB5000AB7000A00000A00000A1D
:10067F0000000A00000A00000A00000A00000A0039
:10068F00000A00000A00000A00000A00000A000029
:10069F000A11227501951881020501190029831588
:1006AF00002583750895018100C01201100100001B
:1006BF0000083D413A5500000000000109023B00CF
:1006CF00020101A0640904000001030101000921D6
:1006DF0011010001223E000705810308000A0000F6
:1006EF0000000000000000000000000000000000FB
:0706FF0000000000000000F4
:100A0500014D00013D0001320001330006350101B1
:100A150001010101064E0101010101019090000053
:100A250003E8000003E8000003E8000003E890A0E5
:100A350000000000000000000000000000000000B1
:100A45000827000000000000000004490000000025
:080A55000621FFFFFFFFFFFF78
:100A5E00C2EAE4F5E2CE7400CECF7400CF8EED8FF5
:100A6E00ECCE7400CECF740ACF8EEF8FEECE740024
:100A7E00CECF7450CF8EE58FE475EA67E5EB54FE6A
:100A8E004404F5EB75DC0275D24275D412E4F5E33D
:100A9E0075D18075E22943D10175D8FF75E107D272
:020AAE00EA223A
:100B5400C8740AC8CC7400CCCD7401CD7B007A0073
:100B640079277E007F0812045775D30853D2FC22DC
:100B7400C87450C8CC7400CCCD7401CD7B007A000D
:100B840079497E007F0412045775D50453D4FC229E
:0300430002004672
:0D004600C0E0C0F0C083C082C0D075D008FB
:1000530020D90302035DE5D9543F70030203402412
:10006300E070030202E114601824F16025240E609D
:100073000302035B75D500E5D454FC4402F5D48038
:100083000B75D300E5D254FC4402F5D2753101025D
:10009300035B85DB10E510640860030202B5900082
:1000A30006E0F53BA3E0700BD3E53B947F748094AB
:1000B300804003753B7F751000900001E0F53C9094
:1000C3000000E054606018E53C1424FD4003020284
:1000D300B824FB24FD40030202B880000202B5E508
:1000E3003CB40B0040030202B39000F3F8282873DA
:1000F3000202970201E40202B302021E0202B302E9
:1001030001B80201140202B30201C10201DB0202BF
:10011300B8900003E024FE601624E06020242170E0
:10012300487546FF7547067548B9751012803D75C9
:1001330046FF7547067548CB75103B802F9000042A
:10014300E0FF7E00700C7546FF7547067548127513
:10015300103EEF64014E70117546FF7547067548F2
:100163005075106975540180037510FFE53BD395F5
:1001730010400385103BC3E53B9408748094804092
:10018300047F088002AF3B8F107E00C87400C8CC88
:100193007400CCCD7401CDAB46AA47A948120457CD
:1001A300C3E53B9510F53BE5102548F548E4354795
:1001B300F5470202B8900002E0F53B0202B8900056
:1001C30000E52FF0C3E53B94017480948050030253
:1001D30002B87510010202B8900002E0F52F020286
:1001E300B8900000E0541F6402702D900004E014E6
:1001F300601D2480600E14701CE5D454BC4402F5C9
:10020300D40202B8E5D254BC4402F5D20202B85378
:10021300D2730202B80202B50202B5900000E054A4
:100223001FFD7C00701B900003E0FE900002E0FBCA
:10023300EB64014E70099006D29320E578807380B9
:1002430071ED64024C704B900003E0FE900002E0FD
:10025300FDED4E703B900005E0FE900004E0FDEDE7
:10026300FFEE702AEF24FE60112481601714701EC4
:10027300E5D454BF4403F5D4803BE5D4547F440C08
:10028300F5D48031E5D254BF4403F5D280278022D0
:100293008020801E900000E4F0A3F0C3E53B9402AD
:1002A300748094804005751002800A853B10800598
:1002B30080007510FFAF107E00EFF47009753CFFEE
:1002C30075DCCF02035BD3EF9408EE648094805017
:1002D300058510DD800375DD0075DCC0807AE53CA3
:1002E30024FB604714704EC3E53B940874809480EC
:1002F30040047F088002AF3B8F107E00C87400C8A3
:10030300CC7400CCCD7401CDAB46AA47A9481204E6
:1003130057C3E53B9510F53BE5102548F548E43513
:1003230047F5478510DD63DC40802DE5E3548045C8
:100333003BF5E3800375DD0075DC02801B85DB1074
:10034300E53C6409700CE51064017006900000E060
:10035300F53475DD0075DC00C2D930D81275DC02C6
:1003630075D21075D41275E300C2DAC2D9C2D8307F
:09037300DA04C2DA800375D8FF38
:0B037C00D0D0D082D083D0F0D0E0328F
:100AE900C28CE4F531120B54E53160FCE4F531FEBA
:100AF9007F08FDFB7A0079271205E3120B54E531D3
:050B090060FCD28C220B
:100B0E00C28CE4F531120B74E53160FCE4F531FE74
:100B1E007F04FDFB7A0079491205E3120B74E5316F
:050B2E0060FCD28C22E6
:070AB000E51290060F93FF11
:100AB7008F13EF6431700A754901E5546003120A18
:100AC700E9E5136432700A754919E5546003120B9E
:100AD7000EE5136433700A754919E5546003120A69
:020AE700E92202
:10070600E4F512C3E5129404748094804003020752
:10071600CB744E2512F8E6FF74352512F8E66F60A5
:1007260015EF6003120AB074352512F8E6FF744E11
:100736002512F8C6EFC6E51225E025E024A0F8E26A
:10074600FC08E2FD08E2FE08E2FFE4FBFAF9F8C362
:1007560012059A505BE51225E025E02490F8E2FCAC
:1007660008E2FD08E2FE08E2FFE51225E025E024A6
:10077600A0F8E2FB08E2F908E2FA08E2CBF8C312B5
:10078600059A403C120AB0E51225E025E02490F8CF
:10079600C0E0E2FC08E2FD08E2FE08E22464FFE4B1
:1007A6003EFEE43DFDE43CFCD0E0F81205BE8010C0
:1007B600E51225E025E02490F81205CA000003E8BA
:0507C600051202070905
:0107CB00220B
:10090500E4F515F514F513F51275154075144275D2
:10091500130FF512CFCFFCFDFEAB15AA14A913A832
:100925001212047DE47BE87A03F9F81205088F15A5
:100935008E148D138C12C3E49515F515E49514F5F5
:100945001474019513F513E49512F512E5152401B8
:10095500F515E43514F514E43513F513E43512F5FE
:1009650012AF15AE14AD13FC78081205AB8F3285A6
:100975001533E58954F14401F58985328C85338A2F
:06098500C28DD2A9D28C44
:01098B002249
:10000E00120B947F057E00120BB27F0812090512A7
:10001E000A5ED2AFE4F5D3F5D5F531F5547534015A
:0B002E00D294D295D29612070680FBF8
:1007CC00E52125E0FFA294E4334FF521E52225E055
:1007DC00FFA295E4334FF522E52325E0FFA296E432
:1007EC00334FF523E4F511AF117E00C3EF9406747B
:1007FC00809480507774212511F8E6540F703A7468
:10080C00352511F8E4F6C3EF940374809480505CA2
:10081C00E51125E025E024A0F8C0E0E2FC08E2FDAB
:10082C0008E2FE08E2240AFFE43EFEE43DFDE43C5F
:10083C00FCD0E0F81205BE802E74212511F8E65488
:10084C000F640F702274352511F87601C3E51194ED
:10085C0003748094805015E51125E025E024A0F860
:0C086C001205CA0000000005110207F38D
:01087800225D
:03000B00020B33B2
:100B3300C0E0C0F0C083C082C0D075D00885328CBD
:100B430085338A1207CCD0D0D082D083D0F0D0E0C6
:010B5300326F
:030000000208797A
:0C087900787FE4F6D8FD7581540208C0B9
:10038700E709F608DFFA8046E709F208DFFA803E58
:1003970088828C83E709F0A3DFFA8032E309F60845
:1003A700DFFA8078E309F208DFFA807088828C83AD
:1003B700E309F0A3DFFA806489828A83E0A3F60861
:1003C700DFFA805889828A83E0A3F208DFFA804C3B
:1003D70080D280FA80C680D4806980F28033801012
:1003E70080A680EA809A80A880DA80E280CA80337B
:1003F70089828A83ECFAE493A3C8C582C8CCC583F3
:10040700CCF0A3C8C582C8CCC583CCDFE9DEE780C2
:100417000D89828A83E493A3F608DFF9ECFAA9F041
:10042700EDFB2289828A83ECFAE0A3C8C582C8CC97
:10043700C583CCF0A3C8C582C8CCC583CCDFEADEB0
:10044700E880DB89828A83E493A3F208DFF980CC12
:1004570088F0EF60010E4E60C388F0ED2402B4040B
:100467000050B9F582EB2402B4040050AF232345B2
:0604770082239003D773FD
:10047D00E88FF0A4CC8BF0A42CFCE98EF0A42CFC1E
:10048D008AF0EDA42CFCEA8EF0A4CDA8F08BF0A49C
:10049D002DCC3825F0FDE98FF0A42CCD35F0FCEBFB
:1004AD008EF0A4FEA9F0EB8FF0A4CFC5F02ECD39C0
:0F04BD00FEE43CFCEAA42DCE35F0FDE43CFC222D
:1004CC0075F008758200EF2FFFEE33FECD33CDCCE7
:1004DC0033CCC58233C5829BED9AEC99E58298406A
:1004EC000CF582EE9BFEED9AFDEC99FC0FD5F0D647
:1004FC00E4CEFBE4CDFAE4CCF9A88222B800C1B971
:10050C000059BA002DEC8BF084CFCECDFCE5F0CBAE
:10051C00F97818EF2FFFEE33FEED33FDEC33FCEBE7
:10052C0033FB10D703994004EB99FB0FD8E5E4F9A2
:10053C00FA227818EF2FFFEE33FEED33FDEC33FC8F
:10054C00C933C910D7059BE99A4007EC9BFCE99A83
:10055C00F90FD8E0E4C9FAE4CCFB2275F010EF2FC8
:10056C00FFEE33FEED33FDCC33CCC833C810D707C8
:10057C009BEC9AE899400AED9BFDEC9AFCE899F803
:0E058C000FD5F0DAE4CDFBE4CCFAE4C8F92296
:10059A00EB9FF5F0EA9E42F0E99D42F0E89C45F0B7
:0105AA00222E
:1005AB00E8600FECC313FCED13FDEE13FEEF13FF2E
:0305BB00D8F12252
:0C05BE00ECF208EDF208EEF208EFF22279
:1005CA00D083D082E493F208740193F20874029300
:0905DA00F208740393F274047337
:1005E300EF4E6012EF60010EEDBB010B89828A832F
:1005F300F0A3DFFCDEFA2289F05007F709DFFCA93C
:0C060300F022BBFEFCF309DFFCA9F02292
:1008850002000EE493A3F8E493A34003F68001F27B
:1008950008DFF48029E493A3F85407240CC8C33374
:1008A500C4540F4420C8834004F456800146F6DF43
:1008B500E4800B0102040810204080900A05E47EC4
:1008C500019360BCA3FF543F30E509541FFEE49338
:1008D500A360010ECF54C025E060A840B8E493A3FF
:1008E500FAE493A3F8E493A3C8C582C8CAC583CA2A
:1008F500F0A3C8C582C8CAC583CADFE9DEE780BEE2
:010A5D000098
:00000001FF
