:100B7D0075A15575A1AA53B9BF43B98075A1557516
:0E0B8D00A1AAE5B954F84404F5B9E4F5A12293
:0E0C0C00EF4E600905A1EF1F70F61E80F32267
:100BCF00AD07AC06ED4C600E7FE87E03120C0CED0A
:070BDF001D70F11C80EE22E5
:040C460043C610226F
:10096C00C29FD29EC29DC2CDC2CC438780E4751972
:10097C000D751803F517F5167B0AFAF9F8AF19AED1
:10098C0018AD17AC161204DAAF038F1AAF19AE18E4
:10099C00AD17AC16E47B0AFAF9F81204DA8F198E4B
:1009AC00188D178C16E51AC394054011EF2401F528
:1009BC0019E43EF518E43DF517E43CF516E58954C9
:1009CC000F4420F58943C9A0E519F404F58DD28EA6
:0409DC00D299D29C3E
:0109E00022F4
:080003003098FDC298AF99226C
:080C2E008F993099FDC2992253
:0A0C1A00C2C7D2C5D2C475C2B2220F
:080C360030C0FDC2C0AFC122B5
:080C3E008FC130C1FDD2C122BB
:100BE60075A15575A1AAEF600543B101800353B104
:070BF600FEE4F5A1F5FF226A
:030C4A008FFF22F7
:0A0C240075A15575A1AA43B1102275
:0E0BFD00ABE243E2B07F017E00120BCF8BE231
:010C0B0022C6
:1005E10031323334353605010906A101050719E019
:1005F10029E7150025017501950881029501750806
:1006010081019503750105081901290391029505D9
:10061100750191019506750826FF00050719002946
:10062100918100C0050C0901A101150025010AEA0B
:10063100000AE9000AE2000A8A010A83010A230288
:100641000ACD000AB6000AB5000AB7000A00000A7E
:1006510000000A00000A00000A00000A00000A0067
:10066100000A00000A00000A00000A00000A000057
:100671000A00000A1122750195188102050119006D
:10068100298315002583750895018100C012011089
:1006910001000000083D413A550000000000010939
:1006A100023B00020101A0640904000001030101F1
:1006B10000092111010001223E0007058103080004
:1006C1000A090401000103000000092100010001E1
:0A06D1002269000705820304000AF5
:100A4500014D00013D000132000133000635010171
:100A550001010101064E0101010101019090000013
:100A650003E8000003E8000003E8000003E890A0A5
:100A75000000000000000000000000000000000071
:100A850008270000000000000000044900000000E5
:080A95000621FFFFFFFFFFFF38
:100A9E00C2EAE4F5E275ED0075EC0075EF0075EE57
:100AAE000A75E50075E45075EA67E5EB54FE4404FB
:100ABE00F5EB75DC0275D24275D412E4F5E375D10F
:100ACE008075E22943D10175D8FF75E107D2EA227C
:100B9B00780A7C007D017B007A0079277E007F0834
:0A0BAB0012042975D30853D2FC226E
:100BB50078507C007D017B007A0079497E007F04B6
:0A0BC50012042975D50453D4FC2254
:0300430002004672
:0D004600C0E0C0F0C083C082C0D075D008FB
:1000530020D90302032FE5D9543F7003020314246C
:10006300E070030202BF14601824F16025240E60BF
:100073000302032D75D500E5D454FC4402F5D48066
:100083000B75D300E5D254FC4402F5D2753101025D
:10009300032D85DB10E5106408600302029A9000CB
:1000A30006E0F53BA3E07007E53BD3947F4003757F
:1000B3003B7F751000900001E0F53C900000E05498
:1000C300606018E53C1424FD400302029D24FB24D8
:1000D300FD400302029D800002029AE53CB40B003E
:1000E30040030202989000EFF8282873020280026E
:1000F30001D002029802020A0202980201A8020138
:10010300100202980201B10201C702029D9000038E
:10011300E024FE601624E06020242170467546FF2B
:1001230075470675488E751012803B7546FF7547F7
:10013300067548A075103B802D900004E0FF700CFD
:100143007546FF7547057548E775103EEFB4011115
:100153007546FF7547067548257510697554018006
:100163000580007510FFE53BD39510400385103BD8
:10017300E53BC3940840047F088002AF3B8F107EA9
:100183000078007C007D01AB46AA47A948120429E8
:10019300C3E53B9510F53BE5102548F548E43547A5
:1001A300F54702029D900002E0F53B02029D90009C
:1001B30000E52FF0E53BC39401500302029D751047
:1001C3000102029D900002E0F52F02029D900000C3
:1001D300E0541F6402702D900004E014601D24801D
:1001E300600E14701CE5D454BC4402F5D402029D85
:1001F300E5D254BC4402F5D202029D53D2730202EB
:100203009D02029A02029A900000E0541FFD701BA7
:10021300900003E0FE900002E0FBEB64014E7009E6
:100223009006A79320E573806E806CED6402704B9B
:10023300900003E0FE900002E0FDED4E703B900065
:1002430005E0FE900004E0FDEDFFEE702AEF24FED2
:1002530060112481601714701EE5D454BF4403F564
:10026300D48037E5D4547F440CF5D4802DE5D254A3
:10027300BF4403F5D28023801E801C801A900000A7
:10028300E4F0A3F0E53BC394024005751002800A35
:10029300853B10800580007510FFE510B4FF0975DC
:1002A3003CFF75DCCF02032DE510D3940850058580
:1002B30010DD800375DD0075DCC0806EE53C24FB3A
:1002C300603D147044E53BC3940840047F088002FA
:1002D300AF3B8F107E0078007C007D01AB46AA47C0
:1002E300A948120429C3E53B9510F53BE5102548C1
:1002F300F548E43547F5478510DD63DC40802BE5A1
:10030300E35480453BF5E3800375DD0075DC028033
:100313001985DB10E53CB4090BE510B40106900028
:1003230000E0F53475DD0075DC00C2D930D81275F4
:10033300DC0275D21075D41275E300C2DAC2D9C2D9
:0B034300D830DA04C2DA800375D8FF5E
:0B034E00D0D0D082D083D0F0D0E032BD
:100B1200C28CE4F531120B9BE53160FCE4F531FE49
:100B22007F08FDFB7A0079271205B5120B9BE53190
:050B320060FCD28C22E2
:100B3700C28CE4F531120BB5E53160FCE4F531FE0A
:100B47007F04FDFB7A0079491205B5120BB5E53133
:050B570060FCD28C22BD
:0709E100E5129005E193FF10
:1009E8008F13E513B4310A754910E5546003120BEF
:1009F80037E513B4320A754A01E5546003120B3720
:100A0800E513B4330A754980E5546003120B37E5E2
:100A180013B4340A754940E5546003120B37E513E3
:100A2800B4350A754902E5546003120B37E513B46F
:0D0A3800360A754901E5546003120B3722A0
:1006DB00E4F512744E2512F8E6FF74352512F8E690
:1006EB006F6015EF60031209E174352512F8E6FF10
:1006FB00744E2512F8C6EFC6E51225E025E024A0BE
:10070B00F8E2FC08E2FD08E2FE08E2FFE4FBFAF97E
:10071B00F8C312056C505CE51225E025E02490F837
:10072B00E2FC08E2FD08E2FE08E2FFE51225E02507
:10073B00E024A0F8E2FB08E2F908E2FA08E2CBF8C1
:10074B00C312056C403D1209E1E51225E025E024BA
:10075B0090F8E8C0E0E2FC08E2FD08E2FE08E224C3
:10076B0064FFE43EFEE43DFDE43CFCD0E0F8120502
:10077B00908010E51225E025E02490F812059C00EE
:0F078B000003E80512E512C3940450030206DED2
:01079A00223C
:10000E0085394DE54D653D602AE54DB4010FE53A64
:10001E0070059005E580149005E6E4800EE53AB48F
:10002E0001059005E580039005E6E493FF1209E8CB
:04003E00854D3D228D
:1008E700E4F515F514F513F51275154075144275F1
:1008F700130FF512FCFDFEAB15AA14A913A81212CB
:10090700044FE47BE87A03F9F81204DA8F158E14A2
:100917008D138C12C3E49515F515E49514F514742D
:10092700019513F513E49512F512E5152401F51554
:10093700E43514F514E43513F513E43512F512AF65
:1009470015AE14AD13FC780812057D8F328515336B
:10095700E58954F14401F58985328C85338AC28D46
:04096700D2A9D28CB3
:01096B002269
:100ADE00120B7D7F057E00120BCF7F081208E712E6
:100AEE000A9ED2AFE4F5D3F5D5F531F55475340140
:100AFE00D294D295D296D297D2B1D2B01206DB1240
:040B0E00000E80F85D
:10079B00E52125E0FFA294E4334FF521E52225E086
:1007AB00FFA295E4334FF522E52325E0FFA296E463
:1007BB00334FF523E52425E0FFA297E4334FF524CF
:1007CB00E52525E0FFA2B1E4334FF525E52625E02D
:1007DB00FFA2B0E4334FF526E4F51174212511F88F
:1007EB00E6540F703874352511F8E4F6E511C3940F
:1007FB0003505CE51125E025E024A0F8E8C0E0E219
:10080B00FC08E2FD08E2FE08E22404FFE43EFEE4FD
:10081B003DFDE43CFCD0E0F8120590802A742125C4
:10082B0011F8E6540FFFBF0F1E74352511F8760132
:10083B00E511C394035018E51125E025E024A0F839
:0F084B0012059C000000000511E5116406708C79
:01085A00227B
:03000B00020B5C89
:100B5C00C0E0C0F0C083C082C0D075D00885328C94
:100B6C0085338A12079BD0D0D082D083D0F0D0E0CE
:010B7C003246
:0300000002085B98
:0C085B00787FE4F6D8FD7581540208A2F5
:10035900E709F608DFFA8046E709F208DFFA803E86
:1003690088828C83E709F0A3DFFA8032E309F60873
:10037900DFFA8078E309F208DFFA807088828C83DB
:10038900E309F0A3DFFA806489828A83E0A3F6088F
:10039900DFFA805889828A83E0A3F208DFFA804C69
:1003A90080D280FA80C680D4806980F28033801040
:1003B90080A680EA809A80A880DA80E280CA8033A9
:1003C90089828A83ECFAE493A3C8C582C8CCC58321
:1003D900CCF0A3C8C582C8CCC583CCDFE9DEE780F1
:1003E9000D89828A83E493A3F608DFF9ECFAA9F070
:1003F900EDFB2289828A83ECFAE0A3C8C582C8CCC6
:10040900C583CCF0A3C8C582C8CCC583CCDFEADEDE
:10041900E880DB89828A83E493A3F208DFF980CC40
:1004290088F0EF60010E4E60C388F0ED2402B40439
:100439000050B9F582EB2402B4040050AF232345E0
:0604490082239003A97359
:10044F00E88FF0A4CC8BF0A42CFCE98EF0A42CFC4C
:10045F008AF0EDA42CFCEA8EF0A4CDA8F08BF0A4CA
:10046F002DCC3825F0FDE98FF0A42CCD35F0FCEB29
:10047F008EF0A4FEA9F0EB8FF0A4CFC5F02ECD39EE
:0F048F00FEE43CFCEAA42DCE35F0FDE43CFC225B
:10049E0075F008758200EF2FFFEE33FECD33CDCC15
:1004AE0033CCC58233C5829BED9AEC99E582984098
:1004BE000CF582EE9BFEED9AFDEC99FC0FD5F0D675
:1004CE00E4CEFBE4CDFAE4CCF9A88222B800C1B99F
:1004DE000059BA002DEC8BF084CFCECDFCE5F0CBDD
:1004EE00F97818EF2FFFEE33FEED33FDEC33FCEB16
:1004FE0033FB10D703994004EB99FB0FD8E5E4F9D1
:10050E00FA227818EF2FFFEE33FEED33FDEC33FCBD
:10051E00C933C910D7059BE99A4007EC9BFCE99AB1
:10052E00F90FD8E0E4C9FAE4CCFB2275F010EF2FF6
:10053E00FFEE33FEED33FDCC33CCC833C810D707F6
:10054E009BEC9AE899400AED9BFDEC9AFCE899F831
:0E055E000FD5F0DAE4CDFBE4CCFAE4C8F922C4
:10056C00EB9FF5F0EA9E42F0E99D42F0E89C45F0E5
:01057C00225C
:10057D00E8600FECC313FCED13FDEE13FEEF13FF5C
:03058D00D8F12280
:0C059000ECF208EDF208EEF208EFF222A7
:10059C00D083D082E493F208740193F2087402932E
:0905AC00F208740393F274047365
:1005B500EF4E6012EF60010EEDBB010B89828A835D
:1005C500F0A3DFFCDEFA2289F05007F709DFFCA96A
:0C05D500F022BBFEFCF309DFFCA9F022C1
:10086700020ADEE493A3F8E493A34003F68001F2BF
:1008770008DFF48029E493A3F85407240CC8C33392
:10088700C4540F4420C8834004F456800146F6DF61
:10089700E4800B0102040810204080900A45E47EA2
:1008A700019360BCA3FF543F30E509541FFEE49356
:1008B700A360010ECF54C025E060A840B8E493A31D
:1008C700FAE493A3F8E493A3C8C582C8CAC583CA48
:1008D700F0A3C8C582C8CAC583CADFE9DEE780BE00
:010A9D000058
:00000001FF
